{
  "address": "0x18e2d2498f084c276abA3680010b209988E1456c",
  "abi": [
    {
      "inputs": [
        {
          "internalType": "address",
          "name": "gateway_",
          "type": "address"
        },
        {
          "internalType": "address",
          "name": "gasReceiver_",
          "type": "address"
        },
        {
          "internalType": "string",
          "name": "chainName_",
          "type": "string"
        },
        {
          "internalType": "address",
          "name": "tokenAddress_",
          "type": "address"
        }
      ],
      "stateMutability": "nonpayable",
      "type": "constructor"
    },
    {
      "inputs": [],
      "name": "AlreadyInitialized",
      "type": "error"
    },
    {
      "inputs": [],
      "name": "AlreadyRegistered",
      "type": "error"
    },
    {
      "inputs": [],
      "name": "GatewayToken",
      "type": "error"
    },
    {
      "inputs": [],
      "name": "InvalidAddress",
      "type": "error"
    },
    {
      "inputs": [],
      "name": "InvalidDestinationChain",
      "type": "error"
    },
    {
      "inputs": [],
      "name": "NotApprovedByGateway",
      "type": "error"
    },
    {
      "inputs": [],
      "name": "TransferFailed",
      "type": "error"
    },
    {
      "inputs": [],
      "name": "TransferFromFailed",
      "type": "error"
    },
    {
      "anonymous": false,
      "inputs": [
        {
          "indexed": false,
          "internalType": "string",
          "name": "sourceChain",
          "type": "string"
        },
        {
          "indexed": false,
          "internalType": "string",
          "name": "sourceAddress",
          "type": "string"
        }
      ],
      "name": "FalseSender",
      "type": "event"
    },
    {
      "inputs": [
        {
          "internalType": "string",
          "name": "destinationChain",
          "type": "string"
        },
        {
          "internalType": "string",
          "name": "destinationContract",
          "type": "string"
        },
        {
          "internalType": "string",
          "name": "recipient",
          "type": "string"
        },
        {
          "internalType": "uint256",
          "name": "amount",
          "type": "uint256"
        }
      ],
      "name": "SendMessage",
      "outputs": [],
      "stateMutability": "payable",
      "type": "function"
    },
    {
      "inputs": [],
      "name": "chainName",
      "outputs": [
        {
          "internalType": "string",
          "name": "",
          "type": "string"
        }
      ],
      "stateMutability": "view",
      "type": "function"
    },
    {
      "inputs": [
        {
          "internalType": "bytes32",
          "name": "commandId",
          "type": "bytes32"
        },
        {
          "internalType": "string",
          "name": "sourceChain",
          "type": "string"
        },
        {
          "internalType": "string",
          "name": "sourceAddress",
          "type": "string"
        },
        {
          "internalType": "bytes",
          "name": "payload",
          "type": "bytes"
        }
      ],
      "name": "execute",
      "outputs": [],
      "stateMutability": "nonpayable",
      "type": "function"
    },
    {
      "inputs": [
        {
          "internalType": "bytes32",
          "name": "commandId",
          "type": "bytes32"
        },
        {
          "internalType": "string",
          "name": "sourceChain",
          "type": "string"
        },
        {
          "internalType": "string",
          "name": "sourceAddress",
          "type": "string"
        },
        {
          "internalType": "bytes",
          "name": "payload",
          "type": "bytes"
        },
        {
          "internalType": "string",
          "name": "tokenSymbol",
          "type": "string"
        },
        {
          "internalType": "uint256",
          "name": "amount",
          "type": "uint256"
        }
      ],
      "name": "executeWithToken",
      "outputs": [],
      "stateMutability": "nonpayable",
      "type": "function"
    },
    {
      "inputs": [],
      "name": "gasService",
      "outputs": [
        {
          "internalType": "contract IAxelarGasService",
          "name": "",
          "type": "address"
        }
      ],
      "stateMutability": "view",
      "type": "function"
    },
    {
      "inputs": [],
      "name": "gateway",
      "outputs": [
        {
          "internalType": "contract IAxelarGateway",
          "name": "",
          "type": "address"
        }
      ],
      "stateMutability": "view",
      "type": "function"
    },
    {
      "inputs": [],
      "name": "tokenAddress",
      "outputs": [
        {
          "internalType": "address",
          "name": "",
          "type": "address"
        }
      ],
      "stateMutability": "view",
      "type": "function"
    }
  ],
  "transactionHash": "0xf21d21108b3c613954ca79285bf373754eb2811fc1b3f70d7c6c80dbb95a2884",
  "args": [
    "0x4D147dCb984e6affEEC47e44293DA442580A3Ec0",
    "0x0000000000000000000000000000000000000000",
    "binance",
    "0xDE41332a508E363079FD6993B81De049cD362B6D"
  ],
  "numDeployments": 2,
  "solcInputHash": "41d8693f0a6a1ce00b7a83a536ccc098",
  "bytecode": "0x60c06040523480156200001157600080fd5b50604051620015c1380380620015c1833981016040819052620000349162000189565b836001600160a01b0381166200005d5760405163e6c4247b60e01b815260040160405180910390fd5b6001600160a01b03908116608052831660a052815162000085906000906020850190620000b0565b50600180546001600160a01b0319166001600160a01b039290921691909117905550620002dd915050565b828054620000be90620002a0565b90600052602060002090601f016020900481019282620000e257600085556200012d565b82601f10620000fd57805160ff19168380011785556200012d565b828001600101855582156200012d579182015b828111156200012d57825182559160200191906001019062000110565b506200013b9291506200013f565b5090565b5b808211156200013b576000815560010162000140565b80516001600160a01b03811681146200016e57600080fd5b919050565b634e487b7160e01b600052604160045260246000fd5b60008060008060808587031215620001a057600080fd5b620001ab8562000156565b93506020620001bc81870162000156565b60408701519094506001600160401b0380821115620001da57600080fd5b818801915088601f830112620001ef57600080fd5b81518181111562000204576200020462000173565b604051601f8201601f19908116603f011681019083821181831017156200022f576200022f62000173565b816040528281528b868487010111156200024857600080fd5b600093505b828410156200026c57848401860151818501870152928501926200024d565b828411156200027e5760008684830101525b809750505050505050620002956060860162000156565b905092959194509250565b600181811c90821680620002b557607f821691505b60208210811415620002d757634e487b7160e01b600052602260045260246000fd5b50919050565b60805160a0516112a36200031e6000396000818161013c01526107030152600081816087015281816101c201528181610342015261078c01526112a36000f3fe6080604052600436106100705760003560e01c8063491606581161004e578063491606581461010a5780636a22d8cc1461012a5780639d76ea581461015e578063c30b75491461017e57600080fd5b8063116191b6146100755780631a98b2e0146100c65780631c93b03a146100e8575b600080fd5b34801561008157600080fd5b506100a97f000000000000000000000000000000000000000000000000000000000000000081565b6040516001600160a01b0390911681526020015b60405180910390f35b3480156100d257600080fd5b506100e66100e1366004610b12565b610191565b005b3480156100f457600080fd5b506100fd610283565b6040516100bd9190610c48565b34801561011657600080fd5b506100e6610125366004610c62565b610311565b34801561013657600080fd5b506100a97f000000000000000000000000000000000000000000000000000000000000000081565b34801561016a57600080fd5b506001546100a9906001600160a01b031681565b6100e661018c366004610da9565b6103fa565b600085856040516101a3929190610e3c565b604051908190038120631876eed960e01b825291506001600160a01b037f00000000000000000000000000000000000000000000000000000000000000001690631876eed990610207908e908e908e908e908e9089908d908d908d90600401610e75565b602060405180830381600087803b15801561022157600080fd5b505af1158015610235573d6000803e3d6000fd5b505050506040513d601f19601f820116820180604052508101906102599190610ed4565b61027657604051631403112d60e21b815260040160405180910390fd5b5050505050505050505050565b6000805461029090610ef6565b80601f01602080910402602001604051908101604052809291908181526020018280546102bc90610ef6565b80156103095780601f106102de57610100808354040283529160200191610309565b820191906000526020600020905b8154815290600101906020018083116102ec57829003601f168201915b505050505081565b60008282604051610323929190610e3c565b604051908190038120635f6970c360e01b825291506001600160a01b037f00000000000000000000000000000000000000000000000000000000000000001690635f6970c390610381908b908b908b908b908b908990600401610f31565b602060405180830381600087803b15801561039b57600080fd5b505af11580156103af573d6000803e3d6000fd5b505050506040513d601f19601f820116820180604052508101906103d39190610ed4565b6103f057604051631403112d60e21b815260040160405180910390fd5b5050505050505050565b6104043382610427565b6000610411848484610535565b905061041f868683346106e6565b505050505050565b600154604080516001600160a01b038581166024830152306044830152606480830186905283518084039091018152608490920183526020820180516001600160e01b03166323b872dd60e01b17905291516000938493169161048991610f72565b6000604051808303816000865af19150503d80600081146104c6576040519150601f19603f3d011682016040523d82523d6000602084013e6104cb565b606091505b509150915060008280156104f75750815115806104f75750818060200190518101906104f79190610ed4565b905080158061051057506001546001600160a01b03163b155b1561052e57604051631e4e7d0960e21b815260040160405180910390fd5b5050505050565b6060600080610543306107f3565b86868660405160200161055893929190610f8e565b60408051601f1981840301815290829052610577939291602001610fb2565b6040516020818303038152906040529050600061061660405180606001604052806040518060400160405280600c81526020016b39b7bab931b2afb1b430b4b760a11b81525081526020016040518060400160405280600e81526020016d736f757263655f6164647265737360901b8152508152602001604051806040016040528060078152602001661c185e5b1bd85960ca1b815250815250610a3e565b610692604051806060016040528060405180604001604052806006815260200165737472696e6760d01b815250815260200160405180604001604052806006815260200165737472696e6760d01b815250815260200160405180604001604052806005815260200164627974657360d81b815250815250610a3e565b836040516020016106a5939291906110d8565b60408051601f198184030181529082905291506106cc90600160e01b90839060200161113b565b604051602081830303815290604052925050509392505050565b801561077557604051630c93e3bb60e01b81526001600160a01b037f00000000000000000000000000000000000000000000000000000000000000001690630c93e3bb908390610742903090899089908990339060040161116c565b6000604051808303818588803b15801561075b57600080fd5b505af115801561076f573d6000803e3d6000fd5b50505050505b604051631c92115f60e01b81526001600160a01b037f00000000000000000000000000000000000000000000000000000000000000001690631c92115f906107c5908790879087906004016111ca565b600060405180830381600087803b1580156107df57600080fd5b505af11580156103f0573d6000803e3d6000fd5b604051606082811b6bffffffffffffffffffffffff191660208301529060009060340160408051601f198184030181528282528051838301909252601083526f181899199a1a9b1b9c1cb0b131b232b360811b60208401528051909350909190600090610861906002611205565b61086c906002611224565b67ffffffffffffffff81111561088457610884610d06565b6040519080825280601f01601f1916602001820160405280156108ae576020820181803683370190505b509050600360fc1b816000815181106108c9576108c961123c565b60200101906001600160f81b031916908160001a905350600f60fb1b816001815181106108f8576108f861123c565b60200101906001600160f81b031916908160001a90535060005b83811015610a345782600486838151811061092f5761092f61123c565b016020015182516001600160f81b031990911690911c60f81c9081106109575761095761123c565b01602001516001600160f81b03191682610972836002611205565b61097d906002611224565b8151811061098d5761098d61123c565b60200101906001600160f81b031916908160001a905350828582815181106109b7576109b761123c565b602091010151815160f89190911c600f169081106109d7576109d761123c565b01602001516001600160f81b031916826109f2836002611205565b6109fd906003611224565b81518110610a0d57610a0d61123c565b60200101906001600160f81b031916908160001a905350610a2d81611252565b9050610912565b5095945050505050565b606060408051600380825260808201909252600091816020015b6060815260200190600190039081610a5857905050905060005b6003811015610ac257838160038110610a8d57610a8d61123c565b6020020151828281518110610aa457610aa461123c565b60200260200101819052508080610aba90611252565b915050610a72565b5092915050565b60008083601f840112610adb57600080fd5b50813567ffffffffffffffff811115610af357600080fd5b602083019150836020828501011115610b0b57600080fd5b9250929050565b60008060008060008060008060008060c08b8d031215610b3157600080fd5b8a35995060208b013567ffffffffffffffff80821115610b5057600080fd5b610b5c8e838f01610ac9565b909b50995060408d0135915080821115610b7557600080fd5b610b818e838f01610ac9565b909950975060608d0135915080821115610b9a57600080fd5b610ba68e838f01610ac9565b909750955060808d0135915080821115610bbf57600080fd5b50610bcc8d828e01610ac9565b9150809450508092505060a08b013590509295989b9194979a5092959850565b60005b83811015610c07578181015183820152602001610bef565b83811115610c16576000848401525b50505050565b60008151808452610c34816020860160208601610bec565b601f01601f19169290920160200192915050565b602081526000610c5b6020830184610c1c565b9392505050565b60008060008060008060006080888a031215610c7d57600080fd5b87359650602088013567ffffffffffffffff80821115610c9c57600080fd5b610ca88b838c01610ac9565b909850965060408a0135915080821115610cc157600080fd5b610ccd8b838c01610ac9565b909650945060608a0135915080821115610ce657600080fd5b50610cf38a828b01610ac9565b989b979a50959850939692959293505050565b634e487b7160e01b600052604160045260246000fd5b600082601f830112610d2d57600080fd5b813567ffffffffffffffff80821115610d4857610d48610d06565b604051601f8301601f19908116603f01168101908282118183101715610d7057610d70610d06565b81604052838152866020858801011115610d8957600080fd5b836020870160208301376000602085830101528094505050505092915050565b600080600080600060808688031215610dc157600080fd5b853567ffffffffffffffff80821115610dd957600080fd5b610de589838a01610d1c565b96506020880135915080821115610dfb57600080fd5b610e0789838a01610d1c565b95506040880135915080821115610e1d57600080fd5b50610e2a88828901610ac9565b96999598509660600135949350505050565b8183823760009101908152919050565b81835281816020850137506000828201602090810191909152601f909101601f19169091010190565b89815260c060208201526000610e8f60c083018a8c610e4c565b8281036040840152610ea281898b610e4c565b90508660608401528281036080840152610ebd818688610e4c565b9150508260a08301529a9950505050505050505050565b600060208284031215610ee657600080fd5b81518015158114610c5b57600080fd5b600181811c90821680610f0a57607f821691505b60208210811415610f2b57634e487b7160e01b600052602260045260246000fd5b50919050565b868152608060208201526000610f4b608083018789610e4c565b8281036040840152610f5e818688610e4c565b915050826060830152979650505050505050565b60008251610f84818460208701610bec565b9190910192915050565b604081526000610fa2604083018587610e4c565b9050826020830152949350505050565b60608152600080855481600182811c915080831680610fd257607f831692505b6020808410821415610ff257634e487b7160e01b86526022600452602486fd5b606088018490526080880182801561101157600181146110225761104d565b60ff1987168252828201975061104d565b60008d81526020902060005b878110156110475781548482015290860190840161102e565b83019850505b50508786038189015250505050506110658186610c1c565b905082810360408401526110798185610c1c565b9695505050505050565b600081518084526020808501808196508360051b8101915082860160005b858110156110cb5782840389526110b9848351610c1c565b988501989350908401906001016110a1565b5091979650505050505050565b608081526013608082015272657865637574655f66726f6d5f72656d6f746560681b60a082015260c06020820152600061111560c0830186611083565b82810360408401526111278186611083565b905082810360608401526110798185610c1c565b6001600160e01b031983168152815160009061115e816004850160208701610bec565b919091016004019392505050565b600060018060a01b03808816835260a0602084015261118e60a0840188610c1c565b83810360408501526111a08188610c1c565b905083810360608501526111b48187610c1c565b9250508084166080840152509695505050505050565b6060815260006111dd6060830186610c1c565b82810360208401526110658186610c1c565b634e487b7160e01b600052601160045260246000fd5b600081600019048311821515161561121f5761121f6111ef565b500290565b60008219821115611237576112376111ef565b500190565b634e487b7160e01b600052603260045260246000fd5b6000600019821415611266576112666111ef565b506001019056fea2646970667358221220548200ad66d1b564a094ff0f5c4ea62de22ce87c0a9fbc686e35ba14d22f570f64736f6c63430008090033",
  "devdoc": {
    "kind": "dev",
    "methods": {},
    "version": 1
  },
  "userdoc": {
    "kind": "user",
    "methods": {},
    "version": 1
  },
  "storageLayout": {
    "storage": [
      {
        "astId": 1593,
        "contract": "contracts/MessageSender.sol:MessageSender",
        "label": "chainName",
        "offset": 0,
        "slot": "0",
        "type": "t_string_storage"
      },
      {
        "astId": 1595,
        "contract": "contracts/MessageSender.sol:MessageSender",
        "label": "tokenAddress",
        "offset": 0,
        "slot": "1",
        "type": "t_address"
      }
    ],
    "types": {
      "t_address": {
        "encoding": "inplace",
        "label": "address",
        "numberOfBytes": "20"
      },
      "t_string_storage": {
        "encoding": "bytes",
        "label": "string",
        "numberOfBytes": "32"
      }
    }
  }
}